:100000000C9427090C9443090C9443090C9443095C
:100010000C9443090C9443090C9443090C94430930
:100020000C9443090C9443090C9429100C948510EA
:100030000C9443090C9443090C9443090C94430910
:100040000C9443090C9443090C9443090C94430900
:100050000C9443090C9443090C9443090C944309F0
:100060000C9443090C9443090C9443090C944309E0
:100070000C9443090C9443090C9443090C944309D0
:100080000C9443090C9443090C9443090C944309C0
:100090000C9443090C9443090C9443090C944309B0
:1000A0000C9443090C9443090C944309A00EA80E28
:1000B000AE0EB40EBA0EC00EC60ECC0E0A002C2028
:1000C000793D0063616C6320783D00202000202C86
:1000D00020793D20007265616420783D0072656181
:1000E0006420783D000000810F810F810F810F8116
:1000F0000F810F810F810F810F810F810F810F0001
:1001000000810F810F810F810F810F00000000001F
:10011000000000810F810F810F810F810F810F81FE
:100120000F810F810F810F810F9A0F810F810F8136
:100130000F810F810F810F810F810F810F810F813F
:100140000F810F810F00000000810F810F810F814F
:100150000F810F810F810F810F810F810F810F811F
:100160000F0000810F810F810F810F810F810F819F
:100170000F810F810F810F810F810F810F810F0080
:1001800000810F810F810F810F810F810F0000000F
:10019000000000000000000000000000000000005F
:1001A000000000000000000000000000000000004F
:1001B000000000000000000000000000000000003F
:1001C000000000000000000000000000000000002F
:1001D000000000000000000000000000000000001F
:1001E000000000000000000000000000000000000F
:1001F00000000000000000000000000000000000FF
:1002000000000000000000000000000000000000EE
:100210000000000000000000000000810F810F813D
:100220000F810F810F810F810F810F810F810F814E
:100230000F810F000000000000000000000000001F
:10024000000000000000000000810F00000000001E
:10025000000000000000000000000000000000009E
:1002600000000000000000810F810F00000000006E
:1002700000000000000000000000000000000081FD
:100280000F810F810F810F000000000000000000AF
:100290000000000000000000000000810F810F81BD
:1002A0000F810F00000000000000000000000000AF
:1002B00000000000000000810F810F810F810F00FE
:1002C000000000000000000000000000000000002E
:1002D000000000810F810F810F810F0000000000DE
:1002E000000000000000000000000000000000000E
:1002F00000000000000000000000000000000000FE
:1003000000000000000000000000000000000000ED
:1003100000000000000000000000000000000000DD
:1007700000000000000000810F810F810F810F81B8
:100780000F810F810F810F810F810F810F810F006A
:1007900000810F810F810F810F810F000000000089
:1007A000000000810F810F810F810F810F810F8168
:1007B0000F810F810F810F810F980F810F810F81A2
:1007C0000F810F810F810F810F810F810F810F81A9
:1007D0000F810F810F00000000810F810F810F81B9
:1007E0000F810F810F810F810F810F810F810F8189
:1007F0000F980F810F810F810F810F810F810F8162
:100800000F810F810F810F810F810F810F810F9C4D
:100810000F810F810F810F810F810F810F00000069
:1008200000000000000000000000000000000000C8
:1008300000000000000000000000000000000000B8
:1008400000000000000000000000000000000000A8
:100850000000000000000000000000000000000098
:100860000000000000000000000000000000000088
:100870000000000000000000000000000000000078
:100880000000000000000000000000000000000068
:100890000000000000000000009A0F0000000000AF
:1008A0000000000000000000000000810F810F81A7
:1008B0000F810F810F810F810F810F810F810F81B8
:1008C0000F810F0000000000000000000000000089
:1008D000000000000000000000810F000000000088
:1008E0000000000000000000000000000000000008
:1008F00000000000000000810F810F0000000000D8
:100900000000000000000000000000000000008166
:100910000F810F810F810F00000000000000000018
:100920000000000000000000000000810F810F8126
:100930000F810F0000000000000000000000000018
:1009400000000000000000810F810F810F810F0067
:1009500000A00F0000000000000000000000009E4A
:100960000F0000810F810F810F810F000000000038
:100970000000000000000000000000000000000077
:100980000000000000000000000000000000000067
:100990000000000000000000000000000000000057
:1009A0000000000000000000000000000000000047
:100E00000000000000004D4C2C4AE0E2E6E44B2CD0
:100E1000284E00E3E231504F000000005051524F85
:100E2000E7E11D1B06190501301110363738E5E0E2
:100E3000041607090A00000B0D0E0F332831141A8F
:100E4000081517012F1C180C12132A2E1E1F202103
:100E500022290223242526272D000000000000005F
:100E60000000000000000000000000000000000082
:100E70000000000000000000000000000000000072
:100E80000000000000000000000000000000000062
:100E90000000000000000001000000000000000051
:100EA0003A3B3C3D3E44453F404142430000000048
:100EB00000000000000000620000000000000000D0
:100EC0000000000000006328000000000000000097
:100ED0000000595A5B2800000000000000000000DC
:100EE0005C5D5E57000000000000000000005F60D5
:100EF00061570000000000000000020053545556E6
:100F000000000000000000000000000000000000E1
:100F100000000000000000000000000000000000D1
:100F200000000000000000000000000000000000C1
:100F300000000000000000000000000000000000B1
:10114000000000000000000000000000000001009E
:101150000035121200020000D4112200220000F615
:10116000113F00210000E6110900030000D0110426
:1011700001030904B61118020309047E113636036F
:101180004500720067006F0044006F007800200087
:101190006500720067006F006E006F006D006900EF
:1011A000630020006B006500790062006F00610041
:1011B000720064000000180375006E007300700078
:1011C0006500630069006600690065006400000056
:1011D0000403090409022200010100C032090400CD
:1011E000000103010100092111010001223F000754
:1011F00005830308000105010906A1017501950891
:10120000050719E029E715002501810295017508F8
:1012100081039505750105081901290591029501BC
:1012200075039103950675081500256805071900D3
:1012300029688100C01201000200000020501D2812
:1012400060000101020001000001C106000011243C
:101250001FBECFEFDAE0DEBFCDBF11E0A0E0B1E00E
:10126000E0EDF3E202C005900D92AC31B107D9F781
:1012700022E0ACE1B1E001C01D92AC36B207E1F76B
:1012800043D00C94E6110C940000209168028091E8
:101290006B0290913E02E0913D02222381F02EE00C
:1012A000E29FF001112424E5929FE00DF11D11242D
:1012B000E80FF11DEE0FFF1FEB58F84F0FC02EE0A7
:1012C000E29FF001112424E5929FE00DF11D11240D
:1012D000E80FF11DEE0FFF1FEB51FF4F8591949129
:1012E000009711F0FC0109940895E0911C01E817A2
:1012F00048F0F0E0E81BF109EE0FFF1FE15CFD4F45
:101300008081089580E0089572D18CE090E0909300
:1013100089008093880090938B0080938A0090933B
:101320008D0080938C00259A269A279A40D656D60F
:101330008823E9F38FE790E09093890080938800F9
:101340002FE782E490E1215080409040E1F700C017
:1013500000008FE790E090938B0080938A002FE746
:1013600082E490E1215080409040E1F700C000000D
:101370008FE790E090938D0080938C002FE782E4BC
:1013800090E1215080409040E1F700C00000259896
:10139000269827988FE790E09093890080938800A3
:1013A00090938B0080938A0090938D0080938C00A3
:1013B0008DED90E00DD4FEE0FF2E86E0EDD3EC0144
:1013C00085E0EAD38C0154E0959587955A95E1F72D
:1013D000BE01E4E075956795EA95E1F723EE280FE5
:1013E000273020F040EEE42EE80E01C0E12C83EE21
:1013F000860F873020F030EED32ED60E01C0D12CD0
:1014000085ED90E0E5D3C80107D48EEC90E0E0D301
:10141000CE0102D48BEC90E0DBD383EC90E0D8D308
:101420008E2DF1D38EEB90E0D3D38D2DECD38CEBBE
:1014300090E0CED36D2D772767FD709540E050E0AA
:101440008E2D992787FD9095EED380911401909170
:101450001501209116013091170130931501209349
:1014600014019093170180931601CDD01092E801DA
:101470008091E801863008F040C010926902009126
:1014800069021091E8010E30A0F5E0911601F0918B
:101490001701F19EC0011124800F911DE80FF91F63
:1014A000208120936802E0911401F0911501E80F6A
:1014B000F91F3081309367022317A9F0EC01C7515F
:1014C000DE4F222331F080E010DF80933E028883DC
:1014D00003C0888180933E0210933D0200936B020B
:1014E00010926A02D2DE809169028F5F8093690256
:1014F000C6CF1F5F1093E801BBCF73D58FE19EE489
:101500000197F1F700C000008091DE0180FF02C06A
:10151000259A01C025988091DE0181FF02C0269A9C
:1015200001C026988091DE0182FF02C0279A01C087
:1015300027988091DE018091DE013FCFE1E0F1E06C
:1015400021E030E09191911113C0F901E050FF4F7B
:1015500091E09083E0911C01EF5FE0931C01F0E0CB
:10156000EE0FFF1FE15CFD4F80832183822F0895E2
:101570002F5F3F4F2431310529F780E00895CF9345
:10158000DF9320911C0191E0C82FD0E0C050DF4FC5
:10159000291740F1E92FF0E0EE0FFF1FE15CFD4F4E
:1015A000318138131DC0E92FF0E0921781F0DF017F
:1015B000AA0FBB1FAF5BBD4F3C91EE0FFF1FE15C5D
:1015C000FD4F308311963C9131839F5FECCFEE0F3E
:1015D000FF1FE15CFD4F1082118218822FEF290F4F
:1015E0009F5FD6CF20931C01DF91CF910895C5D086
:1015F000811105C01AD0882321F082E0089581E08E
:10160000089580E00895CF93DF93EC017FD181119D
:1016100006C0CE0135D0882321F082E003C081E0EE
:1016200001C080E0DF91CF910895CF93E0D380E4B3
:10163000FDD3C82F811120C080E0F8D380E8F6D315
:101640008FEFF4D3EBD3D3D380E4F0D3C82F811141
:1016500013C08CE0EBD380E8E9D38FEFE7D3DED380
:10166000C6D380E4E3D3C82F811106C084E1DED362
:101670008FEFDCD38FEFDAD3D1D38C2FCF910895B6
:101680008F929F92BF92CF92DF92EF92FF920F9331
:101690001F93CF93DF931F92CDB7DEB77C01C5DFD9
:1016A000B82E882369F096E0F70187E01192815007
:1016B000E9F791508EE0E80EF11C9111F5CF4FC083
:1016C00000E010E0CC24C394D12C91D380E4AED3BD
:1016D00082E1ACD3C601002E01C0880F0A94EAF75C
:1016E0008095A4D39BD383D380E4A0D383E19ED3FE
:1016F0007ED381E49BD3CE010196B6D38FD389816B
:10170000882E912C60E070E045E050E0D701A00FFA
:10171000B11FFD01E60FF71F9401042E02C035959D
:1017200027950A94E2F72170332781E0282721705A
:10173000208341505109625F7F4F4F3F8FEF580721
:1017400041F70F5F1F4F0730110509F0BECF4FD390
:1017500080E46CD382E16AD38FEF68D35FD38B2DA3
:101760000F90DF91CF911F910F91FF90EF90DF903D
:10177000CF90BF909F908F900895E1E6F0E080E8D1
:101780008083108256985E9824982C9825982698E5
:10179000279889EA8093800089E0809381001ED396
:1017A0003F9885E08A95F1F70000579885E08A9583
:1017B000F1F70000549885E08A95F1F700005598FC
:1017C00085E08A95F1F700006E9885E08A95F1F73B
:1017D0000000479A85E08A95F1F700005F9A85E05E
:1017E0008A95F1F700005C9A85E08A95F1F7000090
:1017F0005D9A85E08A95F1F70000769A85E08A95F2
:10180000F1F70000879885E08A95F1F70000869847
:1018100085E08A95F1F70000859885E08A95F1F7D3
:101820000000849885E08A95F1F70000819885E0B2
:101830008A95F1F70000809885E08A95F1F700001D
:10184000209885E08A95F1F70000219885E08A9537
:10185000F1F70000229885E08A95F1F700002398BF
:1018600085E08A95F1F70000529885E08A95F1F7B6
:101870000000539885E08A95F1F700003E9885E0D6
:101880008A95F1F700008F9A85E08A95F1F70000BC
:101890008E9A85E08A95F1F700008D9A85E08A9509
:1018A000F1F700008C9A85E08A95F1F70000899A9B
:1018B00085E08A95F1F70000889A85E08A95F1F72E
:1018C0000000289885E08A95F1F70000299885E0C6
:1018D0008A95F1F700002A9885E08A95F1F70000D3
:1018E0002B9885E08A95F1F700005A9885E08A9553
:1018F000F1F700005B9885E08A95F1F700004698C3
:1019000085E08A95F1F7000080E00895FC01209AB7
:1019100085E08A95F1F700008FB18095881F8827B0
:10192000881F87838FB191E086FB882780F98927FC
:10193000858B8FB185FB882780F9892783A38FB199
:1019400082958170892781AB8FB1869581708927B7
:1019500087AF8FB1DF01AA5BBF4F817089271796D0
:101960008C931797209885E08A95F1F70000219ACB
:1019700085E08A95F1F700008FB18095881F882750
:10198000881F80878FB186FB882780F98927868BFF
:101990008FB185FB882780F9892784A38FB1829531
:1019A0008170892782AB8FB11697869581708927C0
:1019B0008C938FB116968170892718968C931897FF
:1019C000219885E08A95F1F70000229A85E08A95B2
:1019D000F1F700008FB18095881F8827881F8187C5
:1019E0008FB186FB882780F98927878B8FB185FB8C
:1019F000882780F9892785A38FB1829581708927EF
:101A000083AB8FB115978695817089278C938FB1A1
:101A100015968170892719968C931997229885E0DD
:101A20008A95F1F70000239A85E08A95F1F7000086
:101A30008FB18095881F8827881F82878FB186FB8A
:101A4000882780F98927808F8FB185FB882780F9C7
:101A5000892786A38FB182958170892784AB8FB146
:101A600014978695817089278C938FB11496817015
:101A700089271A968C931A97239885E08A95F1F70F
:101A80000000529A85E08A95F1F700008FB18095A9
:101A9000881F8827881F83878FB186FB882780F956
:101AA0008927818F8FB185FB882780F9892787A3B4
:101AB0008FB182958170892785AB8FB113978695F9
:101AC000817089278C938FB11396817089271B961B
:101AD0008C931B97529885E08A95F1F70000539AF2
:101AE00085E08A95F1F700008FB18095881F8827DF
:101AF000881F84878FB186FB882780F98927828F8A
:101B00008FB185FB882780F9892780A78FB18295BF
:101B10008170892786AB8FB112978695817089274E
:101B20008C938FB11296817089271C968C931C9789
:101B3000539885E08A95F1F700003E9A85E08A95F2
:101B4000F1F700008FB18095881F8827881F85874F
:101B50008FB186FB882780F98927838F8FB185FB1A
:101B6000882780F9892781A78FB18295817089277D
:101B700087AB8FB111978695817089278C938FB130
:101B8000EA5BFF4F8170892785873E9885E08A95BB
:101B9000F1F7000080E0089596E890937A00982F7E
:101BA0009072906890937B008F7190911801892BAF
:101BB00080937C0086EC80937A0080917A0086FD89
:101BC000FCCF809178002091790090E0922B0895CD
:101BD0001F93CF93DF93EC01FE011491112341F089
:101BE0001A3011F48DE059D0812F57D02196F4CFBF
:101BF000DF91CF911F9108958A3010F490E301C0D6
:101C000097E3890F4AC0CF93C82F82958F70F4DF76
:101C10008C2F8F70CF91F0CFCF93C82F892FF3DF08
:101C20008C2FCF91F0CF9091C801911102C08FEF0E
:101C30000895803809F481E8603809F461E8403893
:101C400009F441E89FB7F89423E02093E90020913C
:101C5000E4002E5C33E05091E80055FD0EC09FBFBC
:101C60009091C801992319F39091E4009217F9F229
:101C70009FB7F8943093E900EECF2091C6012093EE
:101C8000F1008093F1006093F1004093F1008AE34A
:101C90008093E8009FBF80E008959091C801992348
:101CA00071F09FB7F89424E02093E9002091C501DA
:101CB000222349F02091E80025FD03C09FBF8FEF4C
:101CC00008951092C5012091E4002C5F34E040910A
:101CD000E80045FD12C09FBF9091E400921304C03C
:101CE00081E08093C501EBCF9091C801992339F32E
:101CF0009FB7F8943093E900EACF8093F100809188
:101D0000E80085FD06C08AE38093E8001092C701D1
:101D100003C082E08093C7019FBF80E00895962FA3
:101D2000662309F45AC0462F50E0FA01E05EF1093B
:101D3000E830F105B8F5EA5AFF4F9091E60140C34B
:101D4000882311F0916001C09E7F9093E601089571
:101D5000882311F09260F9CF9D7FF7CF882311F08F
:101D60009460F3CF9B7FF1CF882311F09860EDCF83
:101D7000977FEBCF882311F09061E7CF9F7EE5CF6F
:101D8000882311F09062E1CF9F7DDFCF882311F08F
:101D90009064DBCF9F7BD9CF882311F09068D5CF9B
:101DA0009F77D3CFE0EEF1E020E030E04081882360
:101DB00039F041110CC0F901E052FE4F90830895B3
:101DC000491305C0F901E052FE4F108208952F5FBC
:101DD0003F4F31962630310549F70895E9EBF0E0A1
:101DE00080818C7F808388E48093B800089584EAA2
:101DF0008093BC008091BC0087FFFCCF8091B9002C
:101E0000887F883049F08091B900887F803121F047
:101E10008091B900887F089580E0089584E98093D7
:101E2000BC008091BC0084FDFCCF08958093BB0072
:101E300084E88093BC008091BC0087FFFCCF809138
:101E4000B900887F883171F08091B900887F88322D
:101E500049F08091B900887F803421F08091B900E9
:101E6000887F089580E0089524EC2093BC002091A1
:101E7000BC0027FFFCCF2091BB00FC012083809198
:101E8000B900887F803521F08091B900887F08955E
:101E900080E00895CF93DF93C82FD0E0CC0FDD1FF3
:101EA000C753DE4F88816BDB19821882DF91CF9197
:101EB00008951F93CF93DF9390916B0220913E0280
:101EC000E0913D023EE0E39FF001112434E5239FC1
:101ED000E00DF11D1124E90FF11DEB5FF14F14919D
:101EE000C82FD0E0CC0FDD1FC753DE4F888147DB02
:101EF000812F24DB90E099838883DF91CF911F911C
:101F0000089580916B0290913E02E0913D022EE097
:101F1000E29FF001112424E5929FE00DF11D1124B0
:101F2000E80FF11DEB5FF14F649180916802F7CEED
:101F300081E0BFCF81E0AECF82E0BBCF82E0AACF0D
:101F4000F89481E08093E00080E28093D8001092C2
:101F5000C9008FE19EE40197F1F700C000001DBAAF
:101F6000109268001CBC10BE1FBA10927A0010922A
:101F70006E0010926F001092710010927200109219
:101F8000C900ECEBF0E0108214B817B81AB81DB80D
:101F900010BA108215B818B81BB81EB811BA0C9434
:101FA000003F08958091E80080FFFCCF089581E014
:101FB0008093D70080EA8093D80082E189BD09B47C
:101FC00000FEFDCF80E98093D8001092E0001092CF
:101FD000E7018CE08093E200789408958091E70116
:101FE00008958091E701811102C08FEF08958FB7A6
:101FF000F89493E09093E9009091E4009E5C23E0D4
:102000003091E80035FD0EC08FBF8091E701882335
:1020100061F38091E400891741F38FB7F89420931E
:10202000E900EECF9091E6019093F1001092F1005B
:10203000E0EEF1E091919093F10091E0E63EF90736
:10204000C9F79AE39093E8001092DF018FBF80E018
:1020500008951F920F920FB60F9211248F939F93A2
:10206000EF93FF938091E1001092E10083FF0FC096
:102070001092E90091E09093EB001092EC0092E254
:102080009093ED0098E09093F0001092E70182FFAA
:1020900033C08091E701882379F180911901882369
:1020A00059F18091DD018F5F8093DD01837021F50F
:1020B00083E08093E9008091E80085FF1DC0809156
:1020C000DF018F5F8093DF0190911901891314C0A4
:1020D0001092DF018091E6018093F1001092F100EF
:1020E000E0EEF1E081918093F10081E0E63EF807B7
:1020F000C9F78AE38093E800FF91EF919F918F9158
:102100000F900FBE0F901F9018951F920F920FB651
:102110000F921124EF92FF920F931F932F933F93EF
:102120004F935F936F937F938F939F93AF93BF93DF
:10213000EF93FF93CF93DF931F92CDB7DEB710924B
:10214000E9008091E80083FF20C19091F100809127
:10215000F1003091F1002091F100E32EF12CF22AF0
:102160000091F1002091F10010E0122B2091F1007C
:102170006091F10032EF3093E800863009F046C0FC
:1021800037E08DE491E1FC01459154914E155F05D6
:1021900039F4FC013296459154914017510721F0D2
:1021A0000796315081F7F1C0FC0134964591549166
:1021B000FC013696849130E0362B2F3F310519F023
:1021C00010F02FEF30E0281708F4822F3EEF9091A7
:1021D000E800292F2570D9F392FDDAC0982F8132BB
:1021E00008F090E2FA01292F222331F064916093E4
:1021F000F10021503196F8CF490F511D891B3093C2
:10220000E8008111E4CF903211F3C2C0853049F467
:102210008EEF8093E800C6DE8E2D80688093E30009
:10222000B7C0893039F5911145C0E092E7018EEFD2
:102230008093E80041E087E492E14093E9009C014B
:102240002F5F3F4FFC0154915093EB00552359F001
:10225000F90124912093EC009C012D5F3F4F3196B2
:1022600084918093ED004F5F453011F0C901E5CFB7
:102270008EE141C0883039F4903809F041C092DED7
:102280008091E70160C0811115C099838BDE99812F
:10229000923851F40093E9008091EB0085FB882788
:1022A00080F91092E90001C080E08093F100109263
:1022B000F10067C0282F2D7F213011F5923001F5F4
:1022C000EF2809F062C00F779FEF900F943008F06D
:1022D0005CC09EEF9093E8000093E900833009F41E
:1022E00054C089E18093EB0081E090E0002E01C0B2
:1022F000880F0A94EAF78093EA001092EA0048C037
:10230000012B09F042C0913A09F5813089F44ADE87
:102310008091E6018093F1001092F100E0EEF1E08F
:1023200081918093F10081E0E63EF807C9F729C06A
:10233000823021F437DE8091190105C0833029F500
:1023400031DE80911A018093F1001BC09132E9F4D3
:10235000893061F48091E80082FFFCCF8091F10028
:102360008093DE018BEF8093E8000BC08A3029F464
:10237000F09219011092DF0104C08B3031F4E09229
:102380001A018EEF8093E80003C081E28093EB0096
:102390000F90DF91CF91FF91EF91BF91AF919F91FE
:1023A0008F917F916F915F914F913F912F911F91ED
:1023B0000F91FF90EF900F900FBE0F901F90189508
:1023C000EE0FFF1F0590F491E02D0994F894FFCFD4
:1023D00001000000000000000000000000000000FC
:0C23E000000000001D017101407D0100A3
:00000001FF
